:100A7F00020A0064020C03E8020800000A103F0695
:080A8F005B4F666D7D077F6F70
:0E0AAB00E4FFFE0FBF00010EEF64C84E70F5B1
:010AB900221A
:0C0A2D0075F00A84741025F0F8E6F580DE
:100A3900E4FDFCC3ED9FEC9E5015E4FBFA0BBB00F3
:0F0A4900010AEB647B4A70F50DBD00010C80E4DF
:010A5800227B
:03000B00020A984E
:100A9800C0E0758CFC758A660509E50970020508D1
:030AA800D0E03269
:0E0ABA00438901758CFC758A66D2A9D28C2204
:1009FE008F1AA905EB700FE51A25E025E0F5A07416
:100A0E001029F8E6800FE51A25E025E0F5A0741010
:0F0A1E0029F8E64480F5807F017E00120A392214
:1009BB00A90DE4F5A0E975F00A84741025F0F8E6AA
:1009CB00F5807F027E00120A39E975F00A84F97509
:1009DB00A004120A2DE975F00A84F975A008120A11
:1009EB002DE975F00A84F975A0042410F8E6F5805A
:0309FB00020A39B4
:0300030002097778
:10097700C0E0C0F0C0D075D000C000C001C002C048
:1009870003C004C005C006C007850C0E850D0FAF58
:100997000F1209BBC290AF0DAE0C120A39D007D0A7
:1009A70006D005D004D003D002D001D000D0D0D0DB
:0409B700F0D0E0326A
:03001300020A5985
:100A5900C0E0C0D074F4250DF50D7401350CF50C0A
:100A6900D3E50D94D0E50C94074006750C01750D7E
:060A7900F4D0D0D0E03201
:10080000D290D288D28AD2A8D2AAD2AF120ABA1271
:100810000AAB0509E50970020508C3950BE50895C3
:100820000A4007B290E4F508F509850C0E850D0F16
:10083000AE0EAF0F7C007D0A120922E4FBFF120905
:10084000FEAE0EAF0F7C007D0A1209228E0E8F0FB6
:100850007C007D0A120922E4FB7F011209FEAE0E24
:10086000AF0F7C007D0A1209228E0E8F0F7C007D57
:100870000A120922E4FB7F021209FEAE0EAF0F7CC2
:10088000007D0A1209228E0E8F0FAD0FE4FB7F034D
:060890001209FE02080F30
:030000000208965D
:0C089600787FE4F6D8FD75811A0208DDB9
:10092200BC000BBE0029EF8DF084FFADF022E4CCB9
:10093200F875F008EF2FFFEE33FEEC33FCEE9DEC82
:10094200984005FCEE9DFE0FD5F0E9E4CEFD22EDC8
:10095200F8F5F0EE8420D21CFEADF075F008EF2F12
:10096200FFED33FD4007985006D5F0F222C398FD03
:050972000FD5F0EA22A0
:1008A200020800E493A3F8E493A34003F68001F264
:1008B20008DFF48029E493A3F85407240CC8C33357
:1008C200C4540F4420C8834004F456800146F6DF26
:1008D200E4800B0102040810204080900A7FE47E2D
:1008E200019360BCA3FF543F30E509541FFEE4931B
:1008F200A360010ECF54C025E060A840B8E493A3E2
:10090200FAE493A3F8E493A3C8C582C8CAC583CA0C
:10091200F0A3C8C582C8CAC583CADFE9DEE780BEC4
:010A9700005E
:00000001FF
