:100A90000D0A3D3D3D3D3D44494555204B484945A6
:100AA0004E20434855204B59204C45443D3D3D3D4B
:0F0AB0003D0D0A000D0A536574204F4B0D0A00CF
:100B0A0002700000027C0000020900000108000ACD
:0E0B1A00723F065B4F666D7D077F6F016F00B7
:100AEA00E4FDFCC3ED9FEC9E5015E4FBFA0BBB0042
:0F0AFA00010AEB647B4A70F50DBD00010C80E42E
:010B090022C9
:100B3C0075985053890F438920758DFDD28ED299AB
:010B4C002286
:080B72003099FDC2998F992210
:100B2900120ABFFF600C120B72740129F9E43AFA38
:030B390080EE2229
:090B69007BFF7A0A7990020B2946
:10080000AF0BEF3395E0FEC3EF9430EE648094803D
:100810004038D3EF9437EE64809480502DE50DB4CA
:100820006E0FC297E510B46E04C2968011D2968006
:100830000DD297E511B46E04C2968002D29620972D
:1008400007209604C2958002D295E50B644D6003A3
:100850000208E8E50C643160030208E8AF0FEF33EB
:1008600095E0FEEF24D0FFEE34FFFE7C007D6412A5
:100870000AD8AA06AB07AF0EEF3395E0FEEF24D0FF
:10088000FFEE34FFFE7C037DE8120AD8EF2BFBEE6F
:100890003AFAAF10EF3395E0FEEF24D0FFEE34FFCD
:1008A000FE7C007D0A120AD8EF2BFFEE3AFEAD1156
:1008B000ED3395E0FCED24D0FDEC34FFCD2FF57148
:1008C000ED3EF570209707AF71AE70120AEAD2972D
:1008D000209607AF71AE70120AEAD296209507AF44
:1008E00071AE70120AEAD295E50B644D7028E50CE2
:1008F00064307022D295D296D297E50A4509700CE1
:10090000D295D296D297C2A8C2AA800AD295D29680
:0F091000D297D2A8D2AA7BFF7A0A79B4020B2918
:100A5C00309830C29885997EE57E640D6005E57E00
:100A6C00B40A17E50BB44D0BE50CB43006630AFF62
:100A7C006309FF120800E4F56F22740B256FF8A6CA
:030A8C007E056F75
:010A8F002244
:060A2700B3E433FDE4FB23
:100A2D008F7EA905EB700FE57E25E025E0F5A0741E
:100A3D007229F8E6800FE57E25E025E0F5A07472B9
:0F0A4D0029F8E64480F5807F017E00120AEA2234
:03000300020B4DA0
:0E0B4D00B297209706209603C29532D29532B9
:03001300020B5B82
:0E0B5B00B296209706209603C29532D29532AC
:1009AB00120B3C120B69E4F509F50AD295D296D2DB
:1009BB0097D288D28AD2A8D2AAD2AF120A5C309729
:1009CB0036309633309530A297B3E433FDE4FBFF1A
:1009DB00120A2DA296B3E433FDE4FB7F01120A2D1C
:1009EB00A295B3E433FDE4FB7F02120A2DE4FBFD79
:1009FB007F03120A2D80C4A297B3E433FDE4FBFFFF
:100A0B00120A2DA2967F01120A27A2957F02120AC3
:0C0A1B0027E4FB7D017F03120A2D809F61
:0300000002091FD3
:0C091F00787FE4F6D8FD75817E02096641
:100ABF00BB010689828A83E0225002E722BBFE0235
:090ACF00E32289828A83E4932268
:100AD800EF8DF0A4A8F0CF8CF0A428CE8DF0A42E32
:020AE800FE22EC
:10092B000209ABE493A3F8E493A34003F68001F22E
:10093B0008DFF48029E493A3F85407240CC8C333CD
:10094B00C4540F4420C8834004F456800146F6DF9C
:10095B00E4800B0102040810204080900B0AE47E17
:10096B00019360BCA3FF543F30E509541FFEE49391
:10097B00A360010ECF54C025E060A840B8E493A358
:10098B00FAE493A3F8E493A3C8C582C8CAC583CA83
:10099B00F0A3C8C582C8CAC583CADFE9DEE780BE3B
:010B280000CC
:00000001FF
