:100800000D0A3D3D3D3D3D205452414E4720544848
:100810004149203D3D3D3D3D0D0A002D2054726172
:100820006E6720746861692064656E204F464620BB
:100830000D0A002D205472616E6720746861692072
:1008400064656E204F4E200D0A002D205472616E9B
:100850006720746861692071756174204F46462075
:100860000D0A002D205472616E6720746861692042
:1008700071756174204F4E200D0A002D2054726155
:100880006E672074686169206D61796C616E6820A3
:100890004F4646200D0A002D205472616E67207469
:1008A000686169206D61796C616E68204F4E200D22
:1008B0000A003D3D3D3D3D3D3D3D3D3D3D3D3D3DD8
:1008C0003D3D3D3D3D3D3D3D3D3D3D3D3D3D3D3D58
:1008D0003D3D0D0A000D0A3D3D3D3D3D4449455518
:1008E000204B4849454E20434855204B59204C4504
:1008F000443D3D3D3D3D0D0A004E686170206368FA
:1009000075206B79202856443A20323030302C2024
:10091000333130302C203530303029206D73200DAC
:0D0920000A000D0A536574204F4B0D0A00AC
:100C5200021103E802250000020F00000214000046
:100C6200022300000116000113000A193F065B4F20
:0A0C7200666D7D077F6F0208000029
:100CFD0075985053890F438920758DFDD28ED299E9
:010D0D0022C3
:080D37003099FDC2998F992249
:100CD700120A73FF600C120D37740129F9E43AFA0E
:030CE70080EE227A
:100B6A007BFF7A087900120CD7E510450F70067AD8
:100B7A0008791B80067BFF7A087933120CD7E515B2
:100B8A0045147BFF70067A08794A80047A087963EB
:100B9A00120CD7E52445237BFF70067A08797B80FF
:100BAA00047A087997120CD77BFF7A0879B2120C6B
:0F0BBA00D77A0879D5120CD77A0879F9020CD7B7
:0C0D2B00120B6A7BFF7A097922020CD7B8
:03000300020BF8F5
:100BF800C0E0C083C082C0D075D000C001C002C0B0
:100C080003C0076310FF630FFF120D2BD007D0033B
:0D0C1800D002D001D0D0D082D083D0E03205
:03001300020C25B7
:100C2500C0E0C083C082C0D075D000C001C002C082
:100C350003C0076315FF6314FF120D2BD007D00304
:0D0C4500D002D001D0D0D082D083D0E032D8
:100C7D00E4FDFCC3ED9FEC9E5015E4FBFA0BBB00AD
:0F0C8D00010AEB647B4A70F50DBD00010C80E499
:010C9C002235
:100CBD0020B4167F147E00120C7D20B40C6324FF2B
:0A0CCD006323FF120D2B30B4FD224B
:100BC9008F27A905EB700FE52725E025E0F5A0742F
:100BD9001929F8E6800FE52725E025E0F5A0741925
:0F0BE90029F8E64480F5807F017E00120C7D2202
:03000B00020CEAFA
:100CEA00C0E0758CFC758A660526E5267002052526
:030CFA00D0E03215
:0E0D1D00438901758CFC758A66D2A9D28C229E
:0E0D0E00E4FFFE0FBF00010EEF64C84E70F54B
:010D1C0022B4
:100AF300AF0BEF3395E0FEEF24D0FFEE34FFFE7C27
:100B0300007D64120A8CAA06AB07AF0AEF3395E0A7
:100B1300FEEF24D0FFEE34FFFE7C037DE8120A8C47
:100B2300EF2BFBEE3AFAAF0CEF3395E0FEEF24D058
:100B3300FFEE34FFFE7C007D0A120A8CEF2BFFEEE2
:100B43003AFEAD0DED3395E0FCED24D0FDEC34FF22
:100B5300CD2FFFED3EC313FEEF138E11F5127BFF76
:070B63007A097922020CD788
:100C9D0030981CC298740A2513F8A6990513C3E55C
:100CAD00139404748094804006120AF3E4F5132221
:10092D00120CFD120B6AE4F523F524F514F515F5FB
:10093D000FF510C290D288D28AD2A8D2AAD2AF1205
:10094D000D1D120CBD120D0E0509E50970020508ED
:10095D00120C9DAE11AF127C007D0A120A9EC3E5EA
:10096D00099FE5089E4007B290E4F508F509851149
:10097D0017851218AE17AF187C007D0A120A9EE477
:10098D00FBFF120BC9AE17AF187C007D0A120A9E31
:10099D008E178F187C007D0A120A9EE4FB7F0112D0
:1009AD000BC9AE17AF187C007D0A120A9E8E178FE9
:1009BD00187C007D0A120A9EE4FB7F02120BC9AE61
:1009CD0017AF187C007D0A120A9E8E178F18AD186E
:0A09DD00E4FB7F03120BC902094F6F
:030000000209E70B
:0C09E700787FE4F6D8FD758127020A2E07
:100A7300BB010689828A83E0225002E722BBFE0281
:090A8300E32289828A83E49322B4
:100A8C00EF8DF0A4A8F0CF8CF0A428CE8DF0A42E7E
:020A9C00FE2238
:100A9E00BC000BBE0029EF8DF084FFADF022E4CC3C
:100AAE00F875F008EF2FFFEE33FEEC33FCEE9DEC05
:100ABE00984005FCEE9DFE0FD5F0E9E4CEFD22ED4B
:100ACE00F8F5F0EE8420D21CFEADF075F008EF2F95
:100ADE00FFED33FD4007985006D5F0F222C398FD86
:050AEE000FD5F0EA2223
:1009F30002092DE493A3F8E493A34003F68001F2E4
:100A030008DFF48029E493A3F85407240CC8C33304
:100A1300C4540F4420C8834004F456800146F6DFD3
:100A2300E4800B0102040810204080900C52E47E05
:100A3300019360BCA3FF543F30E509541FFEE493C8
:100A4300A360010ECF54C025E060A840B8E493A38F
:100A5300FAE493A3F8E493A3C8C582C8CAC583CABA
:100A6300F0A3C8C582C8CAC583CADFE9DEE780BE72
:010C7C000077
:00000001FF
